{
  "_format": "hh-sol-artifact-1",
  "contractName": "ERC20_Source",
  "sourceName": "contracts/ERC20_Source.sol",
  "abi": [
    {
      "inputs": [
        {
          "internalType": "string",
          "name": "_name",
          "type": "string"
        },
        {
          "internalType": "string",
          "name": "_symbol",
          "type": "string"
        },
        {
          "internalType": "uint256",
          "name": "_initialSupply",
          "type": "uint256"
        },
        {
          "internalType": "address",
          "name": "_owner",
          "type": "address"
        }
      ],
      "stateMutability": "nonpayable",
      "type": "constructor"
    },
    {
      "anonymous": false,
      "inputs": [
        {
          "indexed": true,
          "internalType": "address",
          "name": "owner",
          "type": "address"
        },
        {
          "indexed": true,
          "internalType": "address",
          "name": "spender",
          "type": "address"
        },
        {
          "indexed": false,
          "internalType": "uint256",
          "name": "value",
          "type": "uint256"
        }
      ],
      "name": "Approval",
      "type": "event"
    },
    {
      "anonymous": false,
      "inputs": [
        {
          "indexed": true,
          "internalType": "address",
          "name": "previousOwner",
          "type": "address"
        },
        {
          "indexed": true,
          "internalType": "address",
          "name": "newOwner",
          "type": "address"
        }
      ],
      "name": "OwnershipTransferred",
      "type": "event"
    },
    {
      "anonymous": false,
      "inputs": [
        {
          "indexed": true,
          "internalType": "address",
          "name": "from",
          "type": "address"
        },
        {
          "indexed": true,
          "internalType": "address",
          "name": "to",
          "type": "address"
        },
        {
          "indexed": false,
          "internalType": "uint256",
          "name": "value",
          "type": "uint256"
        }
      ],
      "name": "Transfer",
      "type": "event"
    },
    {
      "inputs": [],
      "name": "DOMAIN_SEPARATOR",
      "outputs": [
        {
          "internalType": "bytes32",
          "name": "",
          "type": "bytes32"
        }
      ],
      "stateMutability": "view",
      "type": "function"
    },
    {
      "inputs": [
        {
          "internalType": "address",
          "name": "owner",
          "type": "address"
        },
        {
          "internalType": "address",
          "name": "spender",
          "type": "address"
        }
      ],
      "name": "allowance",
      "outputs": [
        {
          "internalType": "uint256",
          "name": "",
          "type": "uint256"
        }
      ],
      "stateMutability": "view",
      "type": "function"
    },
    {
      "inputs": [
        {
          "internalType": "address",
          "name": "spender",
          "type": "address"
        },
        {
          "internalType": "uint256",
          "name": "amount",
          "type": "uint256"
        }
      ],
      "name": "approve",
      "outputs": [
        {
          "internalType": "bool",
          "name": "",
          "type": "bool"
        }
      ],
      "stateMutability": "nonpayable",
      "type": "function"
    },
    {
      "inputs": [
        {
          "internalType": "address",
          "name": "account",
          "type": "address"
        }
      ],
      "name": "balanceOf",
      "outputs": [
        {
          "internalType": "uint256",
          "name": "",
          "type": "uint256"
        }
      ],
      "stateMutability": "view",
      "type": "function"
    },
    {
      "inputs": [],
      "name": "decimals",
      "outputs": [
        {
          "internalType": "uint8",
          "name": "",
          "type": "uint8"
        }
      ],
      "stateMutability": "view",
      "type": "function"
    },
    {
      "inputs": [
        {
          "internalType": "address",
          "name": "spender",
          "type": "address"
        },
        {
          "internalType": "uint256",
          "name": "subtractedValue",
          "type": "uint256"
        }
      ],
      "name": "decreaseAllowance",
      "outputs": [
        {
          "internalType": "bool",
          "name": "",
          "type": "bool"
        }
      ],
      "stateMutability": "nonpayable",
      "type": "function"
    },
    {
      "inputs": [
        {
          "internalType": "address",
          "name": "spender",
          "type": "address"
        },
        {
          "internalType": "uint256",
          "name": "addedValue",
          "type": "uint256"
        }
      ],
      "name": "increaseAllowance",
      "outputs": [
        {
          "internalType": "bool",
          "name": "",
          "type": "bool"
        }
      ],
      "stateMutability": "nonpayable",
      "type": "function"
    },
    {
      "inputs": [
        {
          "internalType": "address",
          "name": "to",
          "type": "address"
        },
        {
          "internalType": "uint256",
          "name": "amount",
          "type": "uint256"
        }
      ],
      "name": "mint",
      "outputs": [],
      "stateMutability": "nonpayable",
      "type": "function"
    },
    {
      "inputs": [],
      "name": "name",
      "outputs": [
        {
          "internalType": "string",
          "name": "",
          "type": "string"
        }
      ],
      "stateMutability": "view",
      "type": "function"
    },
    {
      "inputs": [
        {
          "internalType": "address",
          "name": "owner",
          "type": "address"
        }
      ],
      "name": "nonces",
      "outputs": [
        {
          "internalType": "uint256",
          "name": "",
          "type": "uint256"
        }
      ],
      "stateMutability": "view",
      "type": "function"
    },
    {
      "inputs": [],
      "name": "owner",
      "outputs": [
        {
          "internalType": "address",
          "name": "",
          "type": "address"
        }
      ],
      "stateMutability": "view",
      "type": "function"
    },
    {
      "inputs": [
        {
          "internalType": "address",
          "name": "owner",
          "type": "address"
        },
        {
          "internalType": "address",
          "name": "spender",
          "type": "address"
        },
        {
          "internalType": "uint256",
          "name": "value",
          "type": "uint256"
        },
        {
          "internalType": "uint256",
          "name": "deadline",
          "type": "uint256"
        },
        {
          "internalType": "uint8",
          "name": "v",
          "type": "uint8"
        },
        {
          "internalType": "bytes32",
          "name": "r",
          "type": "bytes32"
        },
        {
          "internalType": "bytes32",
          "name": "s",
          "type": "bytes32"
        }
      ],
      "name": "permit",
      "outputs": [],
      "stateMutability": "nonpayable",
      "type": "function"
    },
    {
      "inputs": [],
      "name": "renounceOwnership",
      "outputs": [],
      "stateMutability": "nonpayable",
      "type": "function"
    },
    {
      "inputs": [],
      "name": "symbol",
      "outputs": [
        {
          "internalType": "string",
          "name": "",
          "type": "string"
        }
      ],
      "stateMutability": "view",
      "type": "function"
    },
    {
      "inputs": [],
      "name": "totalSupply",
      "outputs": [
        {
          "internalType": "uint256",
          "name": "",
          "type": "uint256"
        }
      ],
      "stateMutability": "view",
      "type": "function"
    },
    {
      "inputs": [
        {
          "internalType": "address",
          "name": "to",
          "type": "address"
        },
        {
          "internalType": "uint256",
          "name": "amount",
          "type": "uint256"
        }
      ],
      "name": "transfer",
      "outputs": [
        {
          "internalType": "bool",
          "name": "",
          "type": "bool"
        }
      ],
      "stateMutability": "nonpayable",
      "type": "function"
    },
    {
      "inputs": [
        {
          "internalType": "address",
          "name": "from",
          "type": "address"
        },
        {
          "internalType": "address",
          "name": "to",
          "type": "address"
        },
        {
          "internalType": "uint256",
          "name": "amount",
          "type": "uint256"
        }
      ],
      "name": "transferFrom",
      "outputs": [
        {
          "internalType": "bool",
          "name": "",
          "type": "bool"
        }
      ],
      "stateMutability": "nonpayable",
      "type": "function"
    },
    {
      "inputs": [
        {
          "internalType": "address",
          "name": "newOwner",
          "type": "address"
        }
      ],
      "name": "transferOwnership",
      "outputs": [],
      "stateMutability": "nonpayable",
      "type": "function"
    }
  ],
  "bytecode": "0x6101406040523480156200001257600080fd5b5060405162001826380380620018268339810160408190526200003591620004d0565b8380604051806040016040528060018152602001603160f81b815250868681600390805190602001906200006b92919062000373565b5080516200008190600490602084019062000373565b5050506200009e620000986200015760201b60201c565b6200015b565b815160208084019190912082518383012060e08290526101008190524660a0818152604080517f8b73c3c69bb8fe3d512ecc4cf759cc79239f7b179b0ffacaa9a75d522b39400f81880181905281830187905260608201869052608082019490945230818401528151808203909301835260c00190528051940193909320919290916080523060601b60c052610120525062000142935033925085915050620001ad565b6200014d8162000296565b50505050620005df565b3390565b600580546001600160a01b038381166001600160a01b0319831681179093556040519116919082907f8be0079c531659141344cd1fd0a4f28419497f9722a3daafe3b4186f6b6457e090600090a35050565b6001600160a01b038216620002095760405162461bcd60e51b815260206004820152601f60248201527f45524332303a206d696e7420746f20746865207a65726f20616464726573730060448201526064015b60405180910390fd5b80600260008282546200021d919062000565565b90915550506001600160a01b038216600090815260208190526040812080548392906200024c90849062000565565b90915550506040518181526001600160a01b038316906000907fddf252ad1be2c89b69c2b068fc378daa952ba7f163c4a11628f55a4df523b3ef9060200160405180910390a35050565b620002a062000315565b6001600160a01b038116620003075760405162461bcd60e51b815260206004820152602660248201527f4f776e61626c653a206e6577206f776e657220697320746865207a65726f206160448201526564647265737360d01b606482015260840162000200565b62000312816200015b565b50565b6005546001600160a01b03163314620003715760405162461bcd60e51b815260206004820181905260248201527f4f776e61626c653a2063616c6c6572206973206e6f7420746865206f776e6572604482015260640162000200565b565b82805462000381906200058c565b90600052602060002090601f016020900481019282620003a55760008555620003f0565b82601f10620003c057805160ff1916838001178555620003f0565b82800160010185558215620003f0579182015b82811115620003f0578251825591602001919060010190620003d3565b50620003fe92915062000402565b5090565b5b80821115620003fe576000815560010162000403565b600082601f8301126200042b57600080fd5b81516001600160401b0380821115620004485762000448620005c9565b604051601f8301601f19908116603f01168101908282118183101715620004735762000473620005c9565b816040528381526020925086838588010111156200049057600080fd5b600091505b83821015620004b4578582018301518183018401529082019062000495565b83821115620004c65760008385830101525b9695505050505050565b60008060008060808587031215620004e757600080fd5b84516001600160401b0380821115620004ff57600080fd5b6200050d8883890162000419565b955060208701519150808211156200052457600080fd5b50620005338782880162000419565b60408701516060880151919550935090506001600160a01b03811681146200055a57600080fd5b939692955090935050565b600082198211156200058757634e487b7160e01b600052601160045260246000fd5b500190565b600181811c90821680620005a157607f821691505b60208210811415620005c357634e487b7160e01b600052602260045260246000fd5b50919050565b634e487b7160e01b600052604160045260246000fd5b60805160a05160c05160601c60e05161010051610120516111f4620006326000396000610a3c01526000610a8b01526000610a66015260006109bf015260006109e901526000610a1301526111f46000f3fe608060405234801561001057600080fd5b50600436106100e65760003560e01c806306fdde03146100eb578063095ea7b31461010957806318160ddd1461012c57806323b872dd1461013e578063313ce567146101515780633644e51514610160578063395093511461016857806340c10f191461017b57806370a0823114610190578063715018a6146101b95780637ecebe00146101c15780638da5cb5b146101d457806395d89b41146101f4578063a457c2d7146101fc578063a9059cbb1461020f578063d505accf14610222578063dd62ed3e14610235578063f2fde38b14610248575b600080fd5b6100f361025b565b60405161010091906110d8565b60405180910390f35b61011c6101173660046110ae565b6102ed565b6040519015158152602001610100565b6002545b604051908152602001610100565b61011c61014c366004610fff565b610305565b60405160128152602001610100565b610130610329565b61011c6101763660046110ae565b610338565b61018e6101893660046110ae565b61035a565b005b61013061019e366004610faa565b6001600160a01b031660009081526020819052604090205490565b61018e610370565b6101306101cf366004610faa565b610384565b6101dc6103a4565b6040516001600160a01b039091168152602001610100565b6100f36103b3565b61011c61020a3660046110ae565b6103c2565b61011c61021d3660046110ae565b610442565b61018e61023036600461103b565b610450565b610130610243366004610fcc565b6105b4565b61018e610256366004610faa565b6105df565b60606003805461026a90611153565b80601f016020809104026020016040519081016040528092919081815260200182805461029690611153565b80156102e35780601f106102b8576101008083540402835291602001916102e3565b820191906000526020600020905b8154815290600101906020018083116102c657829003601f168201915b5050505050905090565b6000336102fb818585610658565b5060019392505050565b60003361031385828561077c565b61031e8585856107f6565b506001949350505050565b60006103336109b2565b905090565b6000336102fb81858561034b83836105b4565b610355919061112d565b610658565b610362610ad9565b61036c8282610b38565b5050565b610378610ad9565b6103826000610c05565b565b6001600160a01b0381166000908152600660205260408120545b92915050565b6005546001600160a01b031690565b60606004805461026a90611153565b600033816103d082866105b4565b9050838110156104355760405162461bcd60e51b815260206004820152602560248201527f45524332303a2064656372656173656420616c6c6f77616e63652062656c6f77604482015264207a65726f60d81b60648201526084015b60405180910390fd5b61031e8286868403610658565b6000336102fb8185856107f6565b834211156104a05760405162461bcd60e51b815260206004820152601d60248201527f45524332305065726d69743a206578706972656420646561646c696e65000000604482015260640161042c565b60007f6e71edae12b1b97f4d1f60370fef10105fa2faae0126114a169c64845d6126c98888886104cf8c610c57565b6040805160208101969096526001600160a01b0394851690860152929091166060840152608083015260a082015260c0810186905260e001604051602081830303815290604052805190602001209050600061052a82610c7f565b9050600061053a82878787610ccd565b9050896001600160a01b0316816001600160a01b03161461059d5760405162461bcd60e51b815260206004820152601e60248201527f45524332305065726d69743a20696e76616c6964207369676e61747572650000604482015260640161042c565b6105a88a8a8a610658565b50505050505050505050565b6001600160a01b03918216600090815260016020908152604080832093909416825291909152205490565b6105e7610ad9565b6001600160a01b03811661064c5760405162461bcd60e51b815260206004820152602660248201527f4f776e61626c653a206e6577206f776e657220697320746865207a65726f206160448201526564647265737360d01b606482015260840161042c565b61065581610c05565b50565b6001600160a01b0383166106ba5760405162461bcd60e51b8152602060048201526024808201527f45524332303a20617070726f76652066726f6d20746865207a65726f206164646044820152637265737360e01b606482015260840161042c565b6001600160a01b03821661071b5760405162461bcd60e51b815260206004820152602260248201527f45524332303a20617070726f766520746f20746865207a65726f206164647265604482015261737360f01b606482015260840161042c565b6001600160a01b0383811660008181526001602090815260408083209487168084529482529182902085905590518481527f8c5be1e5ebec7d5bd14f71427d1e84f3dd0314c0f7b2291e5b200ac8c7c3b925910160405180910390a3505050565b600061078884846105b4565b905060001981146107f057818110156107e35760405162461bcd60e51b815260206004820152601d60248201527f45524332303a20696e73756666696369656e7420616c6c6f77616e6365000000604482015260640161042c565b6107f08484848403610658565b50505050565b6001600160a01b03831661085a5760405162461bcd60e51b815260206004820152602560248201527f45524332303a207472616e736665722066726f6d20746865207a65726f206164604482015264647265737360d81b606482015260840161042c565b6001600160a01b0382166108bc5760405162461bcd60e51b815260206004820152602360248201527f45524332303a207472616e7366657220746f20746865207a65726f206164647260448201526265737360e81b606482015260840161042c565b6001600160a01b038316600090815260208190526040902054818110156109345760405162461bcd60e51b815260206004820152602660248201527f45524332303a207472616e7366657220616d6f756e7420657863656564732062604482015265616c616e636560d01b606482015260840161042c565b6001600160a01b0380851660009081526020819052604080822085850390559185168152908120805484929061096b90849061112d565b92505081905550826001600160a01b0316846001600160a01b031660008051602061119f833981519152846040516109a591815260200190565b60405180910390a36107f0565b6000306001600160a01b037f000000000000000000000000000000000000000000000000000000000000000016148015610a0b57507f000000000000000000000000000000000000000000000000000000000000000046145b15610a3557507f000000000000000000000000000000000000000000000000000000000000000090565b50604080517f00000000000000000000000000000000000000000000000000000000000000006020808301919091527f0000000000000000000000000000000000000000000000000000000000000000828401527f000000000000000000000000000000000000000000000000000000000000000060608301524660808301523060a0808401919091528351808403909101815260c0909201909252805191012090565b33610ae26103a4565b6001600160a01b0316146103825760405162461bcd60e51b815260206004820181905260248201527f4f776e61626c653a2063616c6c6572206973206e6f7420746865206f776e6572604482015260640161042c565b6001600160a01b038216610b8e5760405162461bcd60e51b815260206004820152601f60248201527f45524332303a206d696e7420746f20746865207a65726f206164647265737300604482015260640161042c565b8060026000828254610ba0919061112d565b90915550506001600160a01b03821660009081526020819052604081208054839290610bcd90849061112d565b90915550506040518181526001600160a01b0383169060009060008051602061119f8339815191529060200160405180910390a35050565b600580546001600160a01b038381166001600160a01b0319831681179093556040519116919082907f8be0079c531659141344cd1fd0a4f28419497f9722a3daafe3b4186f6b6457e090600090a35050565b6001600160a01b03811660009081526006602052604090208054600181018255905b50919050565b600061039e610c8c6109b2565b8360405161190160f01b6020820152602281018390526042810182905260009060620160405160208183030381529060405280519060200120905092915050565b6000806000610cde87878787610cf5565b91509150610ceb81610dd8565b5095945050505050565b6000806fa2a8918ca85bafe22016d0b997e4df60600160ff1b03831115610d225750600090506003610dcf565b8460ff16601b14158015610d3a57508460ff16601c14155b15610d4b5750600090506004610dcf565b6040805160008082526020820180845289905260ff881692820192909252606081018690526080810185905260019060a0016020604051602081039080840390855afa158015610d9f573d6000803e3d6000fd5b5050604051601f1901519150506001600160a01b038116610dc857600060019250925050610dcf565b9150600090505b94509492505050565b6000816004811115610dec57610dec611188565b1415610df55750565b6001816004811115610e0957610e09611188565b1415610e525760405162461bcd60e51b815260206004820152601860248201527745434453413a20696e76616c6964207369676e617475726560401b604482015260640161042c565b6002816004811115610e6657610e66611188565b1415610eb45760405162461bcd60e51b815260206004820152601f60248201527f45434453413a20696e76616c6964207369676e6174757265206c656e67746800604482015260640161042c565b6003816004811115610ec857610ec8611188565b1415610f215760405162461bcd60e51b815260206004820152602260248201527f45434453413a20696e76616c6964207369676e6174757265202773272076616c604482015261756560f01b606482015260840161042c565b6004816004811115610f3557610f35611188565b14156106555760405162461bcd60e51b815260206004820152602260248201527f45434453413a20696e76616c6964207369676e6174757265202776272076616c604482015261756560f01b606482015260840161042c565b80356001600160a01b0381168114610fa557600080fd5b919050565b600060208284031215610fbc57600080fd5b610fc582610f8e565b9392505050565b60008060408385031215610fdf57600080fd5b610fe883610f8e565b9150610ff660208401610f8e565b90509250929050565b60008060006060848603121561101457600080fd5b61101d84610f8e565b925061102b60208501610f8e565b9150604084013590509250925092565b600080600080600080600060e0888a03121561105657600080fd5b61105f88610f8e565b965061106d60208901610f8e565b95506040880135945060608801359350608088013560ff8116811461109157600080fd5b9699959850939692959460a0840135945060c09093013592915050565b600080604083850312156110c157600080fd5b6110ca83610f8e565b946020939093013593505050565b600060208083528351808285015260005b81811015611105578581018301518582016040015282016110e9565b81811115611117576000604083870101525b50601f01601f1916929092016040019392505050565b6000821982111561114e57634e487b7160e01b600052601160045260246000fd5b500190565b600181811c9082168061116757607f821691505b60208210811415610c7957634e487b7160e01b600052602260045260246000fd5b634e487b7160e01b600052602160045260246000fdfeddf252ad1be2c89b69c2b068fc378daa952ba7f163c4a11628f55a4df523b3efa26469706673582212206c9234dd507ccb7e27d3f905583b5b7073adb8e59f53d286c15000aa48977c4a64736f6c63430008070033",
  "linkReferences": {},
  "deployedLinkReferences": {}
}