{
  "_format": "hh-sol-artifact-1",
  "contractName": "GroupFactory",
  "sourceName": "contracts/GroupFactory.sol",
  "abi": [
    {
      "inputs": [
        {
          "internalType": "address",
          "name": "_ContractOwner",
          "type": "address"
        }
      ],
      "stateMutability": "nonpayable",
      "type": "constructor"
    },
    {
      "anonymous": false,
      "inputs": [
        {
          "indexed": false,
          "internalType": "uint256",
          "name": "cost",
          "type": "uint256"
        }
      ],
      "name": "CostChange",
      "type": "event"
    },
    {
      "anonymous": false,
      "inputs": [
        {
          "indexed": false,
          "internalType": "address",
          "name": "sender",
          "type": "address"
        },
        {
          "indexed": false,
          "internalType": "uint256",
          "name": "groupIndex",
          "type": "uint256"
        }
      ],
      "name": "GroupCreate",
      "type": "event"
    },
    {
      "anonymous": false,
      "inputs": [
        {
          "indexed": false,
          "internalType": "uint8",
          "name": "version",
          "type": "uint8"
        }
      ],
      "name": "Initialized",
      "type": "event"
    },
    {
      "anonymous": false,
      "inputs": [
        {
          "indexed": false,
          "internalType": "address",
          "name": "groupAddress",
          "type": "address"
        },
        {
          "indexed": false,
          "internalType": "uint256",
          "name": "groupIndex",
          "type": "uint256"
        },
        {
          "indexed": false,
          "internalType": "address[]",
          "name": "allocation",
          "type": "address[]"
        }
      ],
      "name": "MembershipUpdate",
      "type": "event"
    },
    {
      "anonymous": false,
      "inputs": [
        {
          "indexed": false,
          "internalType": "address",
          "name": "account",
          "type": "address"
        }
      ],
      "name": "Paused",
      "type": "event"
    },
    {
      "anonymous": false,
      "inputs": [
        {
          "indexed": true,
          "internalType": "bytes32",
          "name": "role",
          "type": "bytes32"
        },
        {
          "indexed": true,
          "internalType": "bytes32",
          "name": "previousAdminRole",
          "type": "bytes32"
        },
        {
          "indexed": true,
          "internalType": "bytes32",
          "name": "newAdminRole",
          "type": "bytes32"
        }
      ],
      "name": "RoleAdminChanged",
      "type": "event"
    },
    {
      "anonymous": false,
      "inputs": [
        {
          "indexed": true,
          "internalType": "bytes32",
          "name": "role",
          "type": "bytes32"
        },
        {
          "indexed": true,
          "internalType": "address",
          "name": "account",
          "type": "address"
        },
        {
          "indexed": true,
          "internalType": "address",
          "name": "sender",
          "type": "address"
        }
      ],
      "name": "RoleGranted",
      "type": "event"
    },
    {
      "anonymous": false,
      "inputs": [
        {
          "indexed": true,
          "internalType": "bytes32",
          "name": "role",
          "type": "bytes32"
        },
        {
          "indexed": true,
          "internalType": "address",
          "name": "account",
          "type": "address"
        },
        {
          "indexed": true,
          "internalType": "address",
          "name": "sender",
          "type": "address"
        }
      ],
      "name": "RoleRevoked",
      "type": "event"
    },
    {
      "anonymous": false,
      "inputs": [
        {
          "indexed": false,
          "internalType": "address",
          "name": "account",
          "type": "address"
        }
      ],
      "name": "Unpaused",
      "type": "event"
    },
    {
      "inputs": [],
      "name": "ADMIN_ROLE",
      "outputs": [
        {
          "internalType": "bytes32",
          "name": "",
          "type": "bytes32"
        }
      ],
      "stateMutability": "view",
      "type": "function"
    },
    {
      "inputs": [],
      "name": "DEFAULT_ADMIN_ROLE",
      "outputs": [
        {
          "internalType": "bytes32",
          "name": "",
          "type": "bytes32"
        }
      ],
      "stateMutability": "view",
      "type": "function"
    },
    {
      "inputs": [],
      "name": "cost",
      "outputs": [
        {
          "internalType": "uint256",
          "name": "",
          "type": "uint256"
        }
      ],
      "stateMutability": "view",
      "type": "function"
    },
    {
      "inputs": [
        {
          "internalType": "string",
          "name": "_name",
          "type": "string"
        }
      ],
      "name": "createGroupContract",
      "outputs": [],
      "stateMutability": "payable",
      "type": "function"
    },
    {
      "inputs": [
        {
          "internalType": "uint256",
          "name": "groupId",
          "type": "uint256"
        }
      ],
      "name": "getGroupContract",
      "outputs": [
        {
          "internalType": "address",
          "name": "",
          "type": "address"
        }
      ],
      "stateMutability": "view",
      "type": "function"
    },
    {
      "inputs": [],
      "name": "getGroupContractCount",
      "outputs": [
        {
          "internalType": "uint256",
          "name": "",
          "type": "uint256"
        }
      ],
      "stateMutability": "view",
      "type": "function"
    },
    {
      "inputs": [
        {
          "internalType": "bytes32",
          "name": "role",
          "type": "bytes32"
        }
      ],
      "name": "getRoleAdmin",
      "outputs": [
        {
          "internalType": "bytes32",
          "name": "",
          "type": "bytes32"
        }
      ],
      "stateMutability": "view",
      "type": "function"
    },
    {
      "inputs": [
        {
          "internalType": "bytes32",
          "name": "role",
          "type": "bytes32"
        },
        {
          "internalType": "address",
          "name": "account",
          "type": "address"
        }
      ],
      "name": "grantRole",
      "outputs": [],
      "stateMutability": "nonpayable",
      "type": "function"
    },
    {
      "inputs": [
        {
          "internalType": "bytes32",
          "name": "role",
          "type": "bytes32"
        },
        {
          "internalType": "address",
          "name": "account",
          "type": "address"
        }
      ],
      "name": "hasRole",
      "outputs": [
        {
          "internalType": "bool",
          "name": "",
          "type": "bool"
        }
      ],
      "stateMutability": "view",
      "type": "function"
    },
    {
      "inputs": [
        {
          "internalType": "address",
          "name": "_ContractOwner",
          "type": "address"
        }
      ],
      "name": "initialize",
      "outputs": [],
      "stateMutability": "nonpayable",
      "type": "function"
    },
    {
      "inputs": [],
      "name": "paused",
      "outputs": [
        {
          "internalType": "bool",
          "name": "",
          "type": "bool"
        }
      ],
      "stateMutability": "view",
      "type": "function"
    },
    {
      "inputs": [
        {
          "internalType": "bytes32",
          "name": "role",
          "type": "bytes32"
        },
        {
          "internalType": "address",
          "name": "account",
          "type": "address"
        }
      ],
      "name": "renounceRole",
      "outputs": [],
      "stateMutability": "nonpayable",
      "type": "function"
    },
    {
      "inputs": [
        {
          "internalType": "bytes32",
          "name": "role",
          "type": "bytes32"
        },
        {
          "internalType": "address",
          "name": "account",
          "type": "address"
        }
      ],
      "name": "revokeRole",
      "outputs": [],
      "stateMutability": "nonpayable",
      "type": "function"
    },
    {
      "inputs": [
        {
          "internalType": "uint256",
          "name": "tempCost",
          "type": "uint256"
        }
      ],
      "name": "setCost",
      "outputs": [],
      "stateMutability": "nonpayable",
      "type": "function"
    },
    {
      "inputs": [
        {
          "internalType": "bytes4",
          "name": "interfaceId",
          "type": "bytes4"
        }
      ],
      "name": "supportsInterface",
      "outputs": [
        {
          "internalType": "bool",
          "name": "",
          "type": "bool"
        }
      ],
      "stateMutability": "view",
      "type": "function"
    },
    {
      "inputs": [
        {
          "internalType": "uint256",
          "name": "groupId",
          "type": "uint256"
        },
        {
          "internalType": "address[]",
          "name": "memberList",
          "type": "address[]"
        }
      ],
      "name": "updateGroupMembership",
      "outputs": [],
      "stateMutability": "nonpayable",
      "type": "function"
    },
    {
      "inputs": [],
      "name": "withdrawBalance",
      "outputs": [],
      "stateMutability": "nonpayable",
      "type": "function"
    }
  ],
  "bytecode": "0x60806040523480156200001157600080fd5b506040516200404938038062004049833981016040819052620000349162000361565b600054610100900460ff1615808015620000555750600054600160ff909116105b8062000085575062000072306200021760201b6200093a1760201c565b15801562000085575060005460ff166001145b620000ee5760405162461bcd60e51b815260206004820152602e60248201527f496e697469616c697a61626c653a20636f6e747261637420697320616c72656160448201526d191e481a5b9a5d1a585b1a5e995960921b60648201526084015b60405180910390fd5b6000805460ff19166001179055801562000112576000805461ff0019166101001790555b6200011c62000226565b6200012662000252565b6001600160a01b0382166200016f5760405162461bcd60e51b815260206004820152600e60248201526d1bdddb995c881c995c5d5a5c995960921b6044820152606401620000e5565b6200019b7fa49807205ce4d355092ef5a8a18f56e8913cf4a201fbe287825b095693c217758362000286565b620001a860008362000286565b60ca80546001600160a01b0319166001600160a01b038416179055600060cb5580156200020f576000805461ff0019169055604051600181527f7f26b83ff96e1f2b6a682f133852f6798a09c465da95921460cefb38474024989060200160405180910390a15b5050620003de565b6001600160a01b03163b151590565b600054610100900460ff16620002505760405162461bcd60e51b8152600401620000e59062000393565b565b600054610100900460ff166200027c5760405162461bcd60e51b8152600401620000e59062000393565b620002506200032b565b60008281526097602090815260408083206001600160a01b038516845290915290205460ff16620003275760008281526097602090815260408083206001600160a01b03851684529091529020805460ff19166001179055620002e63390565b6001600160a01b0316816001600160a01b0316837f2f8788117e7eff1d82e926ec794901d17c78024a50270940304540a733656f0d60405160405180910390a45b5050565b600054610100900460ff16620003555760405162461bcd60e51b8152600401620000e59062000393565b6033805460ff19169055565b6000602082840312156200037457600080fd5b81516001600160a01b03811681146200038c57600080fd5b9392505050565b6020808252602b908201527f496e697469616c697a61626c653a20636f6e7472616374206973206e6f74206960408201526a6e697469616c697a696e6760a81b606082015260800190565b613c5b80620003ee6000396000f3fe608060405260043610620000e05760003560e01c806301ffc9a714620000e5578063033718fc146200011f57806313faede61462000146578063248a9ca3146200015e57806327b6bbb514620001835780632f2ff15d14620001aa57806336568abe14620001cf57806344a0d68a14620001f45780635c975abb14620002195780635fd8c710146200023357806375b238fc146200024b57806391d148541462000270578063a217fddf1462000295578063c4d66de814620002ac578063c5bea3e714620002d1578063d547741f146200030f578063dda6edcc1462000334575b600080fd5b348015620000f257600080fd5b506200010a6200010436600462000e7a565b6200034b565b60405190151581526020015b60405180910390f35b3480156200012c57600080fd5b506200013762000383565b60405190815260200162000116565b3480156200015357600080fd5b506200013760cb5481565b3480156200016b57600080fd5b50620001376200017d36600462000e31565b62000394565b3480156200019057600080fd5b50620001a8620001a236600462000f60565b620003a9565b005b348015620001b757600080fd5b50620001a8620001c936600462000e4b565b6200048a565b348015620001dc57600080fd5b50620001a8620001ee36600462000e4b565b620004b1565b3480156200020157600080fd5b50620001a86200021336600462000e31565b62000533565b3480156200022657600080fd5b5060335460ff166200010a565b3480156200024057600080fd5b50620001a86200058b565b3480156200025857600080fd5b506200013760008051602062003c0683398151915281565b3480156200027d57600080fd5b506200010a6200028f36600462000e4b565b620005e2565b348015620002a257600080fd5b5062000137600081565b348015620002b957600080fd5b50620001a8620002cb36600462000e13565b6200060d565b348015620002de57600080fd5b50620002f6620002f036600462000e31565b6200075c565b6040516001600160a01b03909116815260200162000116565b3480156200031c57600080fd5b50620001a86200032e36600462000e4b565b620007ba565b620001a86200034536600462000ea6565b620007dc565b60006001600160e01b03198216637965db0b60e01b14806200037d57506301ffc9a760e01b6001600160e01b03198316145b92915050565b60006200038f60c95490565b905090565b60009081526097602052604090206001015490565b600083815260cc60205260409020546001600160a01b03163314620004295760405162461bcd60e51b815260206004820152602b60248201527f4f6e6c7920612067726f757020636f6e74726163742063616e2075706461746560448201526a0206d656d626572736869760ac1b60648201526084015b60405180910390fd5b33600090815260cd602052604090206200044590838362000d11565b507fd5503eb191eabdcfa388b8db5173ece0e47529e72e67daedbcca8c207ff33484338484846040516200047d949392919062001084565b60405180910390a1505050565b620004958262000394565b620004a08162000949565b620004ac838362000958565b505050565b6001600160a01b0381163314620005235760405162461bcd60e51b815260206004820152602f60248201527f416363657373436f6e74726f6c3a2063616e206f6e6c792072656e6f756e636560448201526e103937b632b9903337b91039b2b63360891b606482015260840162000420565b6200052f8282620009e2565b5050565b60008051602062003c068339815191526200054e8162000949565b60cb8290556040518281527f4b27c8e20f64ec8de731aecb7ead310a0ec9aac2746fcebbbee44df0902574ec906020015b60405180910390a15050565b60008051602062003c06833981519152620005a68162000949565b60ca546040516001600160a01b039091169081904780156108fc02916000818181858888f19350505050158015620004ac573d6000803e3d6000fd5b60009182526097602090815260408084206001600160a01b0393909316845291905290205460ff1690565b600054610100900460ff16158080156200062e5750600054600160ff909116105b8062000653575062000640306200093a565b15801562000653575060005460ff166001145b620006b85760405162461bcd60e51b815260206004820152602e60248201527f496e697469616c697a61626c653a20636f6e747261637420697320616c72656160448201526d191e481a5b9a5d1a585b1a5e995960921b606482015260840162000420565b6000805460ff191660011790558015620006dc576000805461ff0019166101001790555b620006e662000a4c565b620006f062000a78565b6200070b60008051602062003c068339815191528362000958565b6200071860008362000958565b80156200052f576000805461ff0019169055604051600181527f7f26b83ff96e1f2b6a682f133852f6798a09c465da95921460cefb3847402498906020016200057f565b600081815260cc60205260408120546001600160a01b0316806200037d5760405162461bcd60e51b815260206004820152601460248201527311dc9bdd5c08191bd95cc81b9bdd08195e1a5cdd60621b604482015260640162000420565b620007c58262000394565b620007d08162000949565b620004ac8383620009e2565b60cb54341015620008415760405162461bcd60e51b815260206004820152602860248201527f4e6f7420656e6f756768204d4154494320746f20636f6d706c657465207472616044820152673739b0b1ba34b7b760c11b606482015260840162000420565b60006200084d60c95490565b90506000828233604051620008629062000d79565b6200087093929190620010fe565b604051809103906000f0801580156200088d573d6000803e3d6000fd5b5090506200089f60c980546001019055565b600082815260cc6020908152604080832080546001600160a01b0319166001600160a01b03861690811790915560ce8352818420805460ff191660019081179091558251808501845233815291855260cd90935292206200090292909162000d87565b5060408051338152602081018490527f35778aff1c2bbf31b0668f8cb6ae357cecc1dbac97ea193bd7041cbf85634d3591016200047d565b6001600160a01b03163b151590565b62000955813362000aac565b50565b620009648282620005e2565b6200052f5760008281526097602090815260408083206001600160a01b03851684529091529020805460ff191660011790556200099e3390565b6001600160a01b0316816001600160a01b0316837f2f8788117e7eff1d82e926ec794901d17c78024a50270940304540a733656f0d60405160405180910390a45050565b620009ee8282620005e2565b156200052f5760008281526097602090815260408083206001600160a01b0385168085529252808320805460ff1916905551339285917ff6391f5c32d9c69d2a47ea670b442974b53935d1edc7fd64eb21e047a839171b9190a45050565b600054610100900460ff1662000a765760405162461bcd60e51b8152600401620004209062001133565b565b600054610100900460ff1662000aa25760405162461bcd60e51b8152600401620004209062001133565b62000a7662000b1b565b62000ab88282620005e2565b6200052f5762000ad3816001600160a01b0316601462000b51565b62000ae083602062000b51565b60405160200162000af392919062001011565b60408051601f198184030181529082905262461bcd60e51b82526200042091600401620010e9565b600054610100900460ff1662000b455760405162461bcd60e51b8152600401620004209062001133565b6033805460ff19169055565b6060600062000b6283600262001199565b62000b6f9060026200117e565b6001600160401b0381111562000b895762000b8962001234565b6040519080825280601f01601f19166020018201604052801562000bb4576020820181803683370190505b509050600360fc1b8160008151811062000bd25762000bd26200121e565b60200101906001600160f81b031916908160001a905350600f60fb1b8160018151811062000c045762000c046200121e565b60200101906001600160f81b031916908160001a905350600062000c2a84600262001199565b62000c379060016200117e565b90505b600181111562000cb9576f181899199a1a9b1b9c1cb0b131b232b360811b85600f166010811062000c6f5762000c6f6200121e565b1a60f81b82828151811062000c885762000c886200121e565b60200101906001600160f81b031916908160001a90535060049490941c9362000cb181620011ee565b905062000c3a565b50831562000d0a5760405162461bcd60e51b815260206004820181905260248201527f537472696e67733a20686578206c656e67746820696e73756666696369656e74604482015260640162000420565b9392505050565b82805482825590600052602060002090810192821562000d67579160200282015b8281111562000d675781546001600160a01b0319166001600160a01b0384351617825560209092019160019091019062000d32565b5062000d7592915062000ddf565b5090565b6129bb806200124b83390190565b82805482825590600052602060002090810192821562000d67579160200282015b8281111562000d6757825182546001600160a01b0319166001600160a01b0390911617825560209092019160019091019062000da8565b5b8082111562000d75576000815560010162000de0565b80356001600160a01b038116811462000e0e57600080fd5b919050565b60006020828403121562000e2657600080fd5b62000d0a8262000df6565b60006020828403121562000e4457600080fd5b5035919050565b6000806040838503121562000e5f57600080fd5b8235915062000e716020840162000df6565b90509250929050565b60006020828403121562000e8d57600080fd5b81356001600160e01b03198116811462000d0a57600080fd5b60006020828403121562000eb957600080fd5b81356001600160401b038082111562000ed157600080fd5b818401915084601f83011262000ee657600080fd5b81358181111562000efb5762000efb62001234565b604051601f8201601f19908116603f0116810190838211818310171562000f265762000f2662001234565b8160405282815287602084870101111562000f4057600080fd5b826020860160208301376000928101602001929092525095945050505050565b60008060006040848603121562000f7657600080fd5b8335925060208401356001600160401b038082111562000f9557600080fd5b818601915086601f83011262000faa57600080fd5b81358181111562000fba57600080fd5b8760208260051b850101111562000fd057600080fd5b6020830194508093505050509250925092565b6000815180845262000ffd816020860160208601620011bb565b601f01601f19169290920160200192915050565b76020b1b1b2b9b9a1b7b73a3937b61d1030b1b1b7bab73a1604d1b81526000835162001045816017850160208801620011bb565b7001034b99036b4b9b9b4b733903937b6329607d1b601791840191820152835162001078816028840160208801620011bb565b01602801949350505050565b6001600160a01b03858116825260208083018690526060604084018190528301849052600091859160808501845b87811015620010db5783620010c78662000df6565b1682529382019390820190600101620010b2565b509998505050505050505050565b60208152600062000d0a602083018462000fe3565b60608152600062001113606083018662000fe3565b6020830194909452506001600160a01b0391909116604090910152919050565b6020808252602b908201527f496e697469616c697a61626c653a20636f6e7472616374206973206e6f74206960408201526a6e697469616c697a696e6760a81b606082015260800190565b6000821982111562001194576200119462001208565b500190565b6000816000190483118215151615620011b657620011b662001208565b500290565b60005b83811015620011d8578181015183820152602001620011be565b83811115620011e8576000848401525b50505050565b60008162001200576200120062001208565b506000190190565b634e487b7160e01b600052601160045260246000fd5b634e487b7160e01b600052603260045260246000fd5b634e487b7160e01b600052604160045260246000fdfe60806040523480156200001157600080fd5b50604051620029bb380380620029bb83398101604081905262000034916200055b565b600054610100900460ff1615808015620000555750600054600160ff909116105b806200008557506200007230620002f660201b620012761760201c565b15801562000085575060005460ff166001145b620000ee5760405162461bcd60e51b815260206004820152602e60248201527f496e697469616c697a61626c653a20636f6e747261637420697320616c72656160448201526d191e481a5b9a5d1a585b1a5e995960921b60648201526084015b60405180910390fd5b6000805460ff19166001179055801562000112576000805461ff0019166101001790555b6200011c62000305565b620001266200033b565b83516200013b9060c990602087019062000440565b5060ca80546001600160a01b0319166001600160a01b03841690811790915560cd805460ff60a01b1916905560cb84905560408051602081019091529081526200018a9060cf906001620004cf565b5060cc8054336001600160a01b0319918216811790925560cd805490911690911790556001600160a01b038216620001fa5760405162461bcd60e51b815260206004820152601260248201527118dc99585d1959109e481c995c5d5a5c995960721b6044820152606401620000e5565b6200020760008362000365565b620002337fa49807205ce4d355092ef5a8a18f56e8913cf4a201fbe287825b095693c217758362000365565b6200025f7fb19546dff01e856fb3f010c267a7b1c60363cf8a4664e21cc89c26224620214e8362000365565b60cb54604080516001600160a01b038516815260208101929092527f35778aff1c2bbf31b0668f8cb6ae357cecc1dbac97ea193bd7041cbf85634d35910160405180910390a18015620002ec576000805461ff0019169055604051600181527f7f26b83ff96e1f2b6a682f133852f6798a09c465da95921460cefb38474024989060200160405180910390a15b50505050620006f4565b6001600160a01b03163b151590565b600054610100900460ff166200032f5760405162461bcd60e51b8152600401620000e59062000656565b620003396200040a565b565b600054610100900460ff16620003395760405162461bcd60e51b8152600401620000e59062000656565b60008281526097602090815260408083206001600160a01b038516845290915290205460ff16620004065760008281526097602090815260408083206001600160a01b03851684529091529020805460ff19166001179055620003c53390565b6001600160a01b0316816001600160a01b0316837f2f8788117e7eff1d82e926ec794901d17c78024a50270940304540a733656f0d60405160405180910390a45b5050565b600054610100900460ff16620004345760405162461bcd60e51b8152600401620000e59062000656565b6033805460ff19169055565b8280546200044e90620006a1565b90600052602060002090601f016020900481019282620004725760008555620004bd565b82601f106200048d57805160ff1916838001178555620004bd565b82800160010185558215620004bd579182015b82811115620004bd578251825591602001919060010190620004a0565b50620004cb92915062000527565b5090565b828054828255906000526020600020908101928215620004bd579160200282015b82811115620004bd57825182546001600160a01b0319166001600160a01b03909116178255602090920191600190910190620004f0565b5b80821115620004cb576000815560010162000528565b80516001600160a01b03811681146200055657600080fd5b919050565b6000806000606084860312156200057157600080fd5b83516001600160401b03808211156200058957600080fd5b818601915086601f8301126200059e57600080fd5b815181811115620005b357620005b3620006de565b604051601f8201601f19908116603f01168101908382118183101715620005de57620005de620006de565b81604052828152602093508984848701011115620005fb57600080fd5b600091505b828210156200061f578482018401518183018501529083019062000600565b82821115620006315760008484830101525b80975050505080860151935050506200064d604085016200053e565b90509250925092565b6020808252602b908201527f496e697469616c697a61626c653a20636f6e7472616374206973206e6f74206960408201526a6e697469616c697a696e6760a81b606082015260800190565b600181811c90821680620006b657607f821691505b60208210811415620006d857634e487b7160e01b600052602260045260246000fd5b50919050565b634e487b7160e01b600052604160045260246000fd5b6122b780620007046000396000f3fe608060405234801561001057600080fd5b506004361061013e5760003560e01c806301ffc9a71461014357806306fdde031461016b57806312065fe01461018057806315373e3d1461019f578063248a9ca3146101b45780632f2ff15d146101c757806336568abe146101da5780633f4ba83a146101ed5780635c975abb146101f55780635fd8c7101461020057806375b238fc146102085780638456cb591461021d57806384da92a71461022557806391d148541461023857806399e1fd481461024b578063a217fddf1461025e578063a230c52414610266578063a398970314610279578063a6d1aef9146102c7578063a9aa6a9b146102da578063b81b8630146102fb578063c4d66de81461031b578063d547741f1461032e578063e58378bb14610341578063f2fde38b14610356578063f89f579f14610369575b600080fd5b610156610151366004611d4f565b610372565b60405190151581526020015b60405180910390f35b6101736103a9565b6040516101629190611f59565b33600090815260d060205260409020545b604051908152602001610162565b6101b26101ad366004611e89565b610437565b005b6101916101c2366004611d0a565b61081e565b6101b26101d5366004611d23565b610833565b6101b26101e8366004611d23565b610854565b6101b26108d2565b60335460ff16610156565b6101b26108f5565b61019160008051602061222283398151915281565b6101b26109ab565b6101b2610233366004611e18565b6109cb565b610156610246366004611d23565b610a42565b6101b2610259366004611d79565b610a6d565b610191600081565b610156610274366004611cef565b610df6565b6102b7610287366004611d0a565b60d2602052600090815260409020805460018201546003830154600690930154919260ff91821692908216911684565b6040516101629493929190612033565b6101b26102d5366004611dfb565b610e45565b60cd546102ee90600160a01b900460ff1681565b6040516101629190611f46565b610191610309366004611cef565b60d16020526000908152604090205481565b6101b2610329366004611cef565b611067565b6101b261033c366004611d23565b6111bb565b61019160008051602061220283398151915281565b6101b2610364366004611cef565b6111d7565b61019160cb5481565b60006001600160e01b03198216637965db0b60e01b14806103a357506301ffc9a760e01b6001600160e01b03198316145b92915050565b60c980546103b6906120fe565b80601f01602080910402602001604051908101604052809291908181526020018280546103e2906120fe565b801561042f5780601f106104045761010080835404028352916020019161042f565b820191906000526020600020905b81548152906001019060200180831161041257829003601f168201915b505050505081565b61044033610df6565b6104915760405162461bcd60e51b815260206004820152601d60248201527f4d7573742062652061206d656d62657220746f206361737420766f746500000060448201526064015b60405180910390fd5b60ce5482106104dc5760405162461bcd60e51b8152602060048201526017602482015276141c9bdc1bdcd85b08191bd95cc81b9bdd08195e1a5cdd604a1b6044820152606401610488565b600082815260d2602052604081209033600090815260058301602052604090205460ff16600281111561051157610511612194565b1461055d5760405162461bcd60e51b815260206004820152601c60248201527b53656e6465722068617320616c7265616479206361737420766f746560201b6044820152606401610488565b6000600682015460ff16600281111561057857610578612194565b146105c35760405162461bcd60e51b815260206004820152601b60248201527a141c9bdc1bdcd85b081a185cc8185b1c9958591e4818db1bdcd959602a1b6044820152606401610488565b81156105ea573360009081526005820160205260409020805460ff19166001179055610607565b3360009081526005820160205260409020805460ff191660021790555b600061061282611285565b9050600181600281111561062857610628612194565b14156107cb5760068201805460ff1916600117905560005b60048301548110156106f657826002016000846004018381548110610667576106676121aa565b9060005260206000200160009054906101000a90046001600160a01b03166001600160a01b03166001600160a01b031681526020019081526020016000205460d160008560040184815481106106bf576106bf6121aa565b60009182526020808320909101546001600160a01b03168352820192909252604001902055806106ee81612139565b915050610640565b506004820180546107099160cf91611b61565b50600382015460cd805460ff9092169160ff60a01b1916600160a01b83600281111561073757610737612194565b021790555060cd5460cb546040516327b6bbb560e01b81526001600160a01b03909216916327b6bbb5916107709160cf90600401611fd7565b600060405180830381600087803b15801561078a57600080fd5b505af115801561079e573d6000803e3d6000fd5b505083546040519081526000805160206122428339815191529250602001905060405180910390a1610818565b60028160028111156107df576107df612194565b14156108185760068201805460ff1916600217905581546040519081526000805160206122428339815191529060200160405180910390a15b50505050565b60009081526097602052604090206001015490565b61083c8261081e565b610845816116bb565b61084f83836116c5565b505050565b6001600160a01b03811633146108c45760405162461bcd60e51b815260206004820152602f60248201527f416363657373436f6e74726f6c3a2063616e206f6e6c792072656e6f756e636560448201526e103937b632b9903337b91039b2b63360891b6064820152608401610488565b6108ce828261174b565b5050565b6000805160206122028339815191526108ea816116bb565b6108f26117b2565b50565b33600081815260d06020526040902054806109665760405162461bcd60e51b815260206004820152602b60248201527f43757272656e74206d656d6265722062616c616e63652072657175697265642060448201526a746f20776974686472617760a81b6064820152608401610488565b33600090815260d06020526040808220829055516001600160a01b0384169183156108fc02918491818181858888f1935050505015801561084f573d6000803e3d6000fd5b6000805160206122028339815191526109c3816116bb565b6108f2611804565b60ca546001600160a01b03163314610a365760405162461bcd60e51b815260206004820152602860248201527f4f6e6c79207468652067726f7570206f776e65722063616e206368616e676520604482015267746865206e616d6560c01b6064820152608401610488565b61084f60c98383611bb1565b60009182526097602090815260408084206001600160a01b0393909316845291905290205460ff1690565b610a7633610df6565b610ad35760405162461bcd60e51b815260206004820152602860248201527f50726f706f73616c732063616e206f6e6c792062652063726561746564206279604482015267206d656d6265727360c01b6064820152608401610488565b828114610b335760405162461bcd60e51b815260206004820152602860248201527f4d656d626572732073686f756c6420616c69676e20776974682074686520616c6044820152673637b1b0ba34b7b760c11b6064820152608401610488565b600060d26000610b4260ce5490565b81526020019081526020016000209050610b5b60ce5490565b8155610b6b60ce80546001019055565b60018082018054889260ff1990911690836002811115610b8d57610b8d612194565b0217905550610ba0600482018686611c25565b5060cd54600382018054600160a01b90920460ff169160ff19166001836002811115610bce57610bce612194565b0217905550805460405160008051602061226283398151915291610bf491339190611f2d565b60405180910390a160005b84811015610d1757838382818110610c1957610c196121aa565b90506020020135826002016000888885818110610c3857610c386121aa565b9050602002016020810190610c4d9190611cef565b6001600160a01b03168152602081019190915260400160009081209190915560cd54600160a01b900460ff166002811115610c8a57610c8a612194565b148015610ca1575060ca546001600160a01b031633145b15610d0557838382818110610cb857610cb86121aa565b9050602002013560d16000888885818110610cd557610cd56121aa565b9050602002016020810190610cea9190611cef565b6001600160a01b031681526020810191909152604001600020555b80610d0f81612139565b915050610bff565b50600060cd54600160a01b900460ff166002811115610d3857610d38612194565b148015610d4f575060ca546001600160a01b031633145b15610dee5760068101805460ff1916600117905560cd5460cb546040516327b6bbb560e01b81526001600160a01b03909216916327b6bbb591610d979160cf90600401611fd7565b600060405180830381600087803b158015610db157600080fd5b505af1158015610dc5573d6000803e3d6000fd5b505082546040519081526000805160206122428339815191529250602001905060405180910390a15b505050505050565b60ca546000906001600160a01b0383811691161415610e1757506001919050565b6001600160a01b038216600090815260d1602052604090205415610e3d57506001919050565b506000919050565b60ca546001600160a01b03163314610eb15760405162461bcd60e51b815260206004820152602960248201527f4f6e6c7920746865206f776e65722063616e206368616e67652074686520766f60448201526874696e67207479706560b81b6064820152608401610488565b600060cd54600160a01b900460ff166002811115610ed157610ed1612194565b1415610f045760cd805482919060ff60a01b1916600160a01b836002811115610efc57610efc612194565b021790555050565b600060d26000610f1360ce5490565b81526020019081526020016000209050610f2c60ce5490565b8155610f3c60ce80546001019055565b60018181018054600260ff199182168117909255600384018054869491939216918490811115610f6e57610f6e612194565b021790555060cf8054610f85916004840191611b61565b5060005b60cf548110156110395760d1600060cf8381548110610faa57610faa6121aa565b9060005260206000200160009054906101000a90046001600160a01b03166001600160a01b03166001600160a01b031681526020019081526020016000205482600201600060cf8481548110611002576110026121aa565b60009182526020808320909101546001600160a01b031683528201929092526040019020558061103181612139565b915050610f89565b5080546040516000805160206122628339815191529161105b91339190611f2d565b60405180910390a15050565b600054610100900460ff16158080156110875750600054600160ff909116105b806110a8575061109630611276565b1580156110a8575060005460ff166001145b61110b5760405162461bcd60e51b815260206004820152602e60248201527f496e697469616c697a61626c653a20636f6e747261637420697320616c72656160448201526d191e481a5b9a5d1a585b1a5e995960921b6064820152608401610488565b6000805460ff19166001179055801561112e576000805461ff0019166101001790555b611136611841565b61113e611872565b6111496000836116c5565b611161600080516020612222833981519152836116c5565b611179600080516020612202833981519152836116c5565b80156108ce576000805461ff0019169055604051600181527f7f26b83ff96e1f2b6a682f133852f6798a09c465da95921460cefb38474024989060200161105b565b6111c48261081e565b6111cd816116bb565b61084f838361174b565b6000805160206122228339815191526111ef816116bb565b6001600160a01b03821661123b5760405162461bcd60e51b81526020600482015260136024820152721d1bc81859191c995cdcc81c995c5d5a5c9959606a1b6044820152606401610488565b611253600080516020612202833981519152836116c5565b5060ca80546001600160a01b0319166001600160a01b0392909216919091179055565b6001600160a01b03163b151590565b60008060cd54600160a01b900460ff1660028111156112a6576112a6612194565b1480156112bd575060ca546001600160a01b031633145b80156112ee5750600133600090815260058401602052604090205460ff1660028111156112ec576112ec612194565b145b156112fb57506001919050565b600060cd54600160a01b900460ff16600281111561131b5761131b612194565b148015611332575060ca546001600160a01b031633145b80156113635750600233600090815260058401602052604090205460ff16600281111561136157611361612194565b145b1561137057506002919050565b600260cd54600160a01b900460ff16600281111561139057611390612194565b14806113b95750600160cd54600160a01b900460ff1660028111156113b7576113b7612194565b145b15610e3d57600080600080600160cf80549050116113d8576001611419565b60cf546005906113ea90600290612154565b10156113f75760006113fa565b60015b60ff16600260cf8054905061140f9190612088565b6114199190612070565b905060005b60cf5481101561152057600187600501600060cf8481548110611443576114436121aa565b60009182526020808320909101546001600160a01b0316835282019290925260400190205460ff16600281111561147c5761147c612194565b1415611494578461148c81612139565b95505061150e565b600287600501600060cf84815481106114af576114af6121aa565b60009182526020808320909101546001600160a01b0316835282019290925260400190205460ff1660028111156114e8576114e8612194565b141561150057836114f881612139565b94505061150e565b8261150a81612139565b9350505b8061151881612139565b91505061141e565b50600260cd54600160a01b900460ff16600281111561154157611541612194565b148015611558575060cf546115568486612070565b105b156115695750600095945050505050565b600260cd54600160a01b900460ff16600281111561158957611589612194565b148015611597575060cf5484145b156115a85750600195945050505050565b600260cd54600160a01b900460ff1660028111156115c8576115c8612194565b1480156115d55750600083115b156115e65750600295945050505050565b600160cd54600160a01b900460ff16600281111561160657611606612194565b14801561161257508084105b801561161d57508083105b1561162e5750600095945050505050565b600160cd54600160a01b900460ff16600281111561164e5761164e612194565b14801561165b5750808410155b1561166c5750600195945050505050565b600160cd54600160a01b900460ff16600281111561168c5761168c612194565b1480156116995750808310155b156116aa5750600295945050505050565b50600095945050505050565b919050565b6108f28133611899565b6116cf8282610a42565b6108ce5760008281526097602090815260408083206001600160a01b03851684529091529020805460ff191660011790556117073390565b6001600160a01b0316816001600160a01b0316837f2f8788117e7eff1d82e926ec794901d17c78024a50270940304540a733656f0d60405160405180910390a45050565b6117558282610a42565b156108ce5760008281526097602090815260408083206001600160a01b0385168085529252808320805460ff1916905551339285917ff6391f5c32d9c69d2a47ea670b442974b53935d1edc7fd64eb21e047a839171b9190a45050565b6117ba6118fd565b6033805460ff191690557f5db9ee0a495bf2e6ff9c91a7834c1ba4fdd244a5e8aa4e537bd38aeae4b073aa335b6040516001600160a01b03909116815260200160405180910390a1565b61180c611946565b6033805460ff191660011790557f62e78cea01bee320cd4e420270b5ea74000d11b0c9f74754ebdbfc544b05a2586117e73390565b600054610100900460ff166118685760405162461bcd60e51b815260040161048890611f8c565b61187061198c565b565b600054610100900460ff166118705760405162461bcd60e51b815260040161048890611f8c565b6118a38282610a42565b6108ce576118bb816001600160a01b031660146119bf565b6118c68360206119bf565b6040516020016118d7929190611ebe565b60408051601f198184030181529082905262461bcd60e51b825261048891600401611f59565b60335460ff166118705760405162461bcd60e51b815260206004820152601460248201527314185d5cd8589b194e881b9bdd081c185d5cd95960621b6044820152606401610488565b60335460ff16156118705760405162461bcd60e51b815260206004820152601060248201526f14185d5cd8589b194e881c185d5cd95960821b6044820152606401610488565b600054610100900460ff166119b35760405162461bcd60e51b815260040161048890611f8c565b6033805460ff19169055565b606060006119ce83600261209c565b6119d9906002612070565b6001600160401b038111156119f0576119f06121c0565b6040519080825280601f01601f191660200182016040528015611a1a576020820181803683370190505b509050600360fc1b81600081518110611a3557611a356121aa565b60200101906001600160f81b031916908160001a905350600f60fb1b81600181518110611a6457611a646121aa565b60200101906001600160f81b031916908160001a9053506000611a8884600261209c565b611a93906001612070565b90505b6001811115611b0b576f181899199a1a9b1b9c1cb0b131b232b360811b85600f1660108110611ac757611ac76121aa565b1a60f81b828281518110611add57611add6121aa565b60200101906001600160f81b031916908160001a90535060049490941c93611b04816120e7565b9050611a96565b508315611b5a5760405162461bcd60e51b815260206004820181905260248201527f537472696e67733a20686578206c656e67746820696e73756666696369656e746044820152606401610488565b9392505050565b828054828255906000526020600020908101928215611ba15760005260206000209182015b82811115611ba1578254825591600101919060010190611b86565b50611bad929150611c78565b5090565b828054611bbd906120fe565b90600052602060002090601f016020900481019282611bdf5760008555611ba1565b82601f10611bf85782800160ff19823516178555611ba1565b82800160010185558215611ba1579182015b82811115611ba1578235825591602001919060010190611c0a565b828054828255906000526020600020908101928215611ba1579160200282015b82811115611ba15781546001600160a01b0319166001600160a01b03843516178255602090920191600190910190611c45565b5b80821115611bad5760008155600101611c79565b80356001600160a01b03811681146116b657600080fd5b60008083601f840112611cb657600080fd5b5081356001600160401b03811115611ccd57600080fd5b6020830191508360208260051b8501011115611ce857600080fd5b9250929050565b600060208284031215611d0157600080fd5b611b5a82611c8d565b600060208284031215611d1c57600080fd5b5035919050565b60008060408385031215611d3657600080fd5b82359150611d4660208401611c8d565b90509250929050565b600060208284031215611d6157600080fd5b81356001600160e01b031981168114611b5a57600080fd5b600080600080600060608688031215611d9157600080fd5b8535611d9c816121f4565b945060208601356001600160401b0380821115611db857600080fd5b611dc489838a01611ca4565b90965094506040880135915080821115611ddd57600080fd5b50611dea88828901611ca4565b969995985093965092949392505050565b600060208284031215611e0d57600080fd5b8135611b5a816121f4565b60008060208385031215611e2b57600080fd5b82356001600160401b0380821115611e4257600080fd5b818501915085601f830112611e5657600080fd5b813581811115611e6557600080fd5b866020828501011115611e7757600080fd5b60209290920196919550909350505050565b60008060408385031215611e9c57600080fd5b8235915060208301358015158114611eb357600080fd5b809150509250929050565b76020b1b1b2b9b9a1b7b73a3937b61d1030b1b1b7bab73a1604d1b815260008351611ef08160178501602088016120bb565b7001034b99036b4b9b9b4b733903937b6329607d1b6017918401918201528351611f218160288401602088016120bb565b01602801949350505050565b6001600160a01b03929092168252602082015260400190565b60208101611f53836121d6565b91905290565b6020815260008251806020840152611f788160408501602087016120bb565b601f01601f19169190910160400192915050565b6020808252602b908201527f496e697469616c697a61626c653a20636f6e7472616374206973206e6f74206960408201526a6e697469616c697a696e6760a81b606082015260800190565b60006040820184835260206040818501528185548084526060860191508660005282600020935060005b818110156120265784546001600160a01b031683526001948501949284019201612001565b5090979650505050505050565b84815260808101612043856121d6565b846020830152612052846121d6565b836040830152612061836121d6565b82606083015295945050505050565b6000821982111561208357612083612168565b500190565b6000826120975761209761217e565b500490565b60008160001904831182151516156120b6576120b6612168565b500290565b60005b838110156120d65781810151838201526020016120be565b838111156108185750506000910152565b6000816120f6576120f6612168565b506000190190565b600181811c9082168061211257607f821691505b6020821081141561213357634e487b7160e01b600052602260045260246000fd5b50919050565b600060001982141561214d5761214d612168565b5060010190565b6000826121635761216361217e565b500690565b634e487b7160e01b600052601160045260246000fd5b634e487b7160e01b600052601260045260246000fd5b634e487b7160e01b600052602160045260246000fd5b634e487b7160e01b600052603260045260246000fd5b634e487b7160e01b600052604160045260246000fd5b600381106108f257634e487b7160e01b600052602160045260246000fd5b600381106108f257600080fdfeb19546dff01e856fb3f010c267a7b1c60363cf8a4664e21cc89c26224620214ea49807205ce4d355092ef5a8a18f56e8913cf4a201fbe287825b095693c21775081094909f4170f3891f77fdfeaa2c727cbd05ad78fa8fdf56f1004bb155acf643acf52e1473f9d1ab8e2e2f74ec3e72b4d9db126805d571d8b72900fa670651a2646970667358221220b96db4835c8104cbb46c75c53f0a06559bc5664acd2abb87643aa5d92c09e47864736f6c63430008070033a49807205ce4d355092ef5a8a18f56e8913cf4a201fbe287825b095693c21775a26469706673582212206b44a5d7014adc98f48ee23ea2951ba767915f5c3b97ad96827dde59d5d4616964736f6c63430008070033",
  "linkReferences": {},
  "deployedLinkReferences": {}
}